MPASM  4.01 Released                            TABLAS_03.ASM   6-20-2005  22:08:52         PAGE  1


LOC  OBJECT CODE     LINE SOURCE TEXT
  VALUE

                      00001 ;************************************* Tablas_03.asm ************************************
                      00002 ;
                      00003 ;       ===================================================================
                      00004 ;         Del libro "MICROCONTROLADOR PIC16F84. DESARROLLO DE PROYECTOS"
                      00005 ;         E. Palacios, F. Remiro y L. López.            www.pic16f84a.com
                      00006 ;         Editorial Ra-Ma.  www.ra-ma.es
                      00007 ;       ===================================================================
                      00008 ;
                      00009 ; Implementar una tabla de la verdad mediante el manejo de tablas grabadas en ROM. Por
                      00010 ; ejemplo, la tabla será de 3 entradas y 6 salidas:
                      00011 ; 
                      00012 ;               C  B  A  | S5  S4  S3  S2  S1  S0
                      00013 ;               -----------|---------------------------
                      00014 ;               0   0   0   |   0    0    1    0    1    0      ; (Configuración 0).
                      00015 ;               0   0   1   |   0    0    1    0    0    1      ; (Configuración 1).
                      00016 ;               0   1   0   |   1    0    0    0    1    1      ; (Configuración 2).
                      00017 ;               0   1   1   |   0    0    1    1    1    1      ; (Configuración 3).
                      00018 ;               1   0   0   |   1    0    0    0    0    0      ; (Configuración 4).
                      00019 ;               1   0   1   |   0    0    0    1    1    1      ; (Configuración 5).
                      00020 ;               1   1   0   |   0    1    0    1    1    1      ; (Configuración 6).
                      00021 ;               1   1   1   |   1    1    1    1    1    1      ; (Configuración 7).
                      00022 ;
                      00023 ; Las entradas C, B, A se conectarán a las líneas del puerto A: RA2 (C), RA1 (B) y RA0 (A).
                      00024 ; Las salidas se obtendrán del puerto B: RB5 (S5), RB4 (S4), RB3 (S3), RB2 (S2), RB1 (S1)
                      00025 ; y RB0 (S0).
                      00026 ;
                      00027 ; ZONA DE DATOS **********************************************************************
                      00028 
                      00029         LIST            P=16F84A
                      00030         INCLUDE         <P16F84A.INC>
                      00001         LIST
                      00002 ; P16F84A.INC  Standard Header File, Version 2.00    Microchip Technology, Inc.
                      00134         LIST
2007   3FF1           00031         __CONFIG        _CP_OFF &  _WDT_OFF & _PWRTE_ON & _XT_OSC
                      00032 
                      00033 ; ZONA DE CÓDIGOS ********************************************************************
                      00034 
0000                  00035         ORG     0                                               ; El programa comienza en la dirección 0
                            .
0000                  00036 Inicio
0000   1683           00037         bsf             STATUS,RP0                              ; Acceso al Banco 1.
Message[302]: Register in operand not in bank 0.  Ensure that bank bits are correct.
0001   0186           00038         clrf    TRISB                                   ; Las líneas del Puerto B se configuran como sal
                            ida.
0002   301F           00039         movlw   b'00011111'                             ; Las 5 líneas del Puerto A se configuran como e
                            ntrada.
Message[302]: Register in operand not in bank 0.  Ensure that bank bits are correct.
0003   0085           00040         movwf   TRISA
0004   1283           00041         bcf             STATUS,RP0                              ; Acceso al Banco 0.
0005                  00042 Principal
0005   0805           00043         movf    PORTA,W                                 ; Lee el valor de las variables de entrada.
0006   3907           00044         andlw   b'00000111'                             ; Se queda con los tres bits bajos de entrada.
0007   200A           00045         call    TablaVerdad                     ; Obtiene la configuración de salida.
MPASM  4.01 Released                            TABLAS_03.ASM   6-20-2005  22:08:52         PAGE  2


LOC  OBJECT CODE     LINE SOURCE TEXT
  VALUE

0008   0086           00046         movwf   PORTB                                   ; Se visualiza por el puerto de salida.
0009   2805           00047         goto    Principal
                      00048 
                      00049 ; Subrutina "TablaVerdad" ---------------------------------------------------------------
                      00050 ;
000A                  00051 TablaVerdad
000A   0782           00052         addwf   PCL,F
000B   340A           00053         retlw   b'00001010'                             ; (Configuración 0).
000C   3409           00054         retlw   b'00001001'                             ; (Configuración 1).
000D   3423           00055         retlw   b'00100011'                             ; (Configuración 2).
000E   340F           00056         retlw   b'00001111'                             ; (Configuración 3).
000F   3420           00057         retlw   b'00100000'                             ; (Configuración 4).
0010   3407           00058         retlw   b'00000111'                             ; (Configuración 5).
0011   3417           00059         retlw   b'00010111'                             ; (Configuración 6).
0012   343F           00060         retlw   b'00111111'                             ; (Configuración 7).
                      00061 
                      00062         END
MPASM  4.01 Released                            TABLAS_03.ASM   6-20-2005  22:08:52         PAGE  3


SYMBOL TABLE
  LABEL                             VALUE 

C                                 00000000
DC                                00000001
EEADR                             00000009
EECON1                            00000088
EECON2                            00000089
EEDATA                            00000008
EEIE                              00000006
EEIF                              00000004
F                                 00000001
FSR                               00000004
GIE                               00000007
INDF                              00000000
INTCON                            0000000B
INTE                              00000004
INTEDG                            00000006
INTF                              00000001
IRP                               00000007
Inicio                            00000000
NOT_PD                            00000003
NOT_RBPU                          00000007
NOT_TO                            00000004
OPTION_REG                        00000081
PCL                               00000002
PCLATH                            0000000A
PORTA                             00000005
PORTB                             00000006
PS0                               00000000
PS1                               00000001
PS2                               00000002
PSA                               00000003
Principal                         00000005
RBIE                              00000003
RBIF                              00000000
RD                                00000000
RP0                               00000005
RP1                               00000006
STATUS                            00000003
T0CS                              00000005
T0IE                              00000005
T0IF                              00000002
T0SE                              00000004
TMR0                              00000001
TRISA                             00000085
TRISB                             00000086
TablaVerdad                       0000000A
W                                 00000000
WR                                00000001
WREN                              00000002
WRERR                             00000003
Z                                 00000002
_CP_OFF                           00003FFF
_CP_ON                            0000000F
_HS_OSC                           00003FFE
MPASM  4.01 Released                            TABLAS_03.ASM   6-20-2005  22:08:52         PAGE  4


SYMBOL TABLE
  LABEL                             VALUE 

_LP_OSC                           00003FFC
_PWRTE_OFF                        00003FFF
_PWRTE_ON                         00003FF7
_RC_OSC                           00003FFF
_WDT_OFF                          00003FFB
_WDT_ON                           00003FFF
_XT_OSC                           00003FFD
__16F84A                          00000001


MEMORY USAGE MAP ('X' = Used,  '-' = Unused)

0000 : XXXXXXXXXXXXXXXX XXX------------- ---------------- ----------------
2000 : -------X-------- ---------------- ---------------- ----------------

All other memory blocks unused.

Program Memory Words Used:    19
Program Memory Words Free:  1005


Errors   :     0
Warnings :     0 reported,     0 suppressed
Messages :     2 reported,     0 suppressed

