:020000040000FA
:10000000012170308F007C21F6308E007C212B3056
:100010004821F8308D007C21AB308C007C213D30B4
:1000200048212E20013003187C210F087C210E0866
:100030007C216300950008309400950D3130031C3D
:1000400030304821940B1D2808008D098C0901309F
:100050008C0703188D0A0C08080025200C088E0751
:1000600003188D0A0D088F070800910190010830D0
:1000700094000C088E0C03189107910C900C940BB3
:100080003A280800910190019301920110309400E8
:100090008F0C8E0C031C52280C0892070318930A2D
:1000A0000D089307930C920C910C900C940B48281C
:1000B000080090019201083094008C0D920D0E08FA
:1000C000120203189200900D940B5D28120808008C
:1000D000910190019201103094008C0D8D0D920DC4
:1000E0000E08120203189200900D910D940B6D28CA
:1000F0001208080091011A089000190886201808B3
:10010000862017088620160886200800950010080B
:100110008C0011088D008F010A308E0042201508D6
:1001200090070318910A08001C088D001D088C0018
:1001300005309B00163084000A308E006820800055
:10014000840A11088D0010088C009B0B9C28080065
:100150009E0104309B001A30840000081E18B2284B
:100160000319B42880211E1484039B0BAD281608A4
:1001700080210800000000000000000000000000D6
:1001800008000000A430CD2800004030CD281F30EA
:10019000CD2800000E30CD2805309F009F0BCE28C3
:1001A0000800C830E0286430E0283230E0281430FD
:1001B000E0280A30E0280530E0280230E02801304D
:1001C000A000F9309F0000009F0BE328A00BE1285E
:1001D0000800C830F4286430F4283230F428143091
:1001E000F4280A30F4280530A1006430A000F9306A
:1001F0009F0000009F0BF928A00BF728A10BF52802
:10020000080083160510051185108312851005114D
:100210000510D72030301B21DB2030301B21C420BB
:1002200030301B21CC2020301B21CC204521432104
:1002300041212F210800F039A20006080F39A2043D
:1002400083160608A4000F30860583122208860054
:100250000515051183162408860083120800063050
:10026000462980304629C030462994304629D4306A
:10027000462980384629C0384629083046290E309C
:1002800046290C30462901304629283005104A29D4
:1002900005145221A3001B21230E1B21051CDD2068
:1002A000C9200800A200F13C031D5929EE30A2002C
:1002B00066292208D13C031D6029EE30A200662980
:1002C0002208BA3C031D6629DF30A200220808007C
:1002D00010306F2901306F2902306F290330A500DB
:1002E00020304821A50B70290800A600F039031D15
:1002F0007D29203048217F29A600260E802126084E
:100300000F39A500093C031C88292508303E8A299D
:060310002508373E4829D4
:02400E00F13F80
:00000001FF
