:020000040000FA
:1000000052201B30CD203C30CD2084201B30DC2002
:100010003C30DC2063000000000000000000000015
:10002000000008000000A4301E28000040301E28F8
:100030001F301E2800000E301E2805308C008C0B4F
:100040001F280800C8303128643031283230312868
:10005000143031280A303128053031280230312857
:1000600001308D00F9308C0000008C0B34288D0B92
:1000700032280800C83045286430452832304528E9
:10008000143045280A30452805308E0064308D0034
:10009000F9308C0000008C0B4A288D0B48288E0B01
:1000A0004628080083160510051185108312851057
:1000B00005110510282030306C202C2030306C20A9
:1000C000152030306C201D2020306C201D20962003
:1000D0009420922080200800F0398F0006080F3904
:1000E0008F048316060891000F30860583120F08CF
:1000F0008600051505118316110886008312080075
:100100000630972880309728C03097289430972859
:10011000D430972880389728C038972808309728F7
:100120000E3097280C30972801309728283005107A
:100130009B280514A32090006C20100E6C20051C39
:100140002E201A2008008F00F13C031DAA28EE3053
:100150008F00B7280F08D13C031DB128EE308F0067
:10016000B7280F08BA3C031DB728DF308F000F08EF
:1001700008001030C0280130C0280230C0280330E9
:10018000920020309920920BC12808009300F0398A
:10019000031DCE2820309920D0289300130ED120A3
:1001A00013080F399200093C031CD9281208303E6D
:1001B000DB281208373E99289D0008309C009D0DD1
:1001C0003130031C303099209C0BDF280800950942
:1001D0009409013094070318950A14080800E720D1
:1001E000140896070318950A15089707080099013F
:1001F000980108309C001408960C03189907990C74
:10020000980C9C0BFC280800990198019B019A010D
:1002100010309C00970C960C031C142914089A07A4
:1002200003189B0A15089B079B0C9A0C990C980CB9
:100230009C0B0A29080098019A0108309C00940D33
:100240009A0D16081A0203189A00980D9C0B1F2984
:100250001A080800990198019A0110309C00940D29
:10026000950D9A0D16081A0203189A00980D990D0B
:100270009C0B2F291A0808009901220898002108D0
:100280004821200848211F0848211E08482108004D
:100290009D00180894001908950097010A309600EF
:1002A00004211D0898070318990A080024089500DE
:1002B000250894000530A3001E3084000A30960003
:1002C0002A218000840A1908950018089400A30BBD
:1002D0005E290800A6010430A30022308400000833
:1002E0002618742903197629D12026148403A30B18
:0802F0006F291E08D12008004F
:02400E00F13F80
:00000001FF
