:020000040000FA
:0200000068286E
:0800080075288207013402345F
:1000100005340A34143432346434C834820720344A
:10002000293432343B3444344D3456345F348207FF
:1000300046347234653463342E343A342034003418
:100040003134303420346B3448347A342E34203414
:100050000034353420346B3448347A342E34203430
:1000600020340034323420346B3448347A342E3423
:10007000203420340034313420346B3448347A3422
:100080002E342034203400343534303430342034AD
:1000900048347A342E34203400343234303430341E
:1000A000203448347A342E3420340034313430341F
:1000B0003034203448347A342E342034003435340B
:1000C0003034203448347A342E3420342034003410
:1000D000C52083168611861708308100831283207D
:1000E000D6308100A8308B0074280B1991200B1892
:1000F0007C200B110B1009006C21861B90288C0AA8
:1001000008300C0203188C010C0805208D008E00AD
:10011000F52018309D200C080E209D20861F8E286B
:100120000800D63081008E0B9C280D088E008619A1
:100130009B2886159C28861108008F0017308F0297
:100140008F030F081720900090080319AA280C218C
:100150008F0AA12808008F0017308F028F039101AA
:10016000072110301102031DBA28662166210F30C5
:100170008F02AF280F081720900090080319C42899
:100180000C21910A8F0AB128080083160510051169
:10019000851083128510051105106C213030DF2089
:1001A00070213030DF2059213030DF2061212030B4
:1001B000DF206121092107210521F3200800F03902
:1001C000920006080F3992048316060894000F3037
:1001D000860583121208860005150511831614087A
:1001E00086008312080006300A2980300A29C030B0
:1001F0000A2994300A29D4300A2980380A29C038BB
:100200000A2908300A290E300A290C300A2901303F
:100210000A29283005100E29051416219300DF2025
:10022000130EDF20051C72215E2108009200F13CB4
:10023000031D1D29EE3092002A291208D13C031D0E
:100240002429EE3092002A291208BA3C031D2A29DB
:10025000DF309200120808001030332901303329B2
:10026000023033290330950020300C21950B3429BE
:1002700008009600F039031D412920300C21432944
:100280009600160E442116080F399500093C031CF0
:100290004C291508303E4E291508373E0C29000020
:1002A0000000000000000000000008000000A43072
:1002B00062290000403062291F30622900000E30A0
:1002C000622905309700970B63290800C83075290B
:1002D0006430752932307529143075290A30752932
:1002E000053075290230752901309800F9309700E2
:1002F0000000970B7829980B76290800C8308929C7
:100300006430892932308929143089290A308929B1
:100310000530990064309800F93097000000970B81
:0C0320008E29980B8C29990B8A29080063
:02400E00F13F80
:00000001FF
