:020000040000FA
:100000006F2083160614811383128C010E20061CA8
:100010000A2007283220061814288C0A9F200C0872
:100020005C20E320061C12280800000000000000ED
:1000300000000000000008000000A4302828000094
:10004000403028281F30282800000E30282805308E
:100050008D008D0B29280800C8303B2864303B28D0
:1000600032303B2814303B280A303B2805303B28EF
:1000700002303B2801308E00F9308D0000008D0BDE
:100080003E288E0B3C280800C8304F2864304F288B
:1000900032304F2814304F280A304F2805308F0057
:1000A00064308E00F9308D0000008D0B54288E0BCB
:1000B00052288F0B502808009001910192000A30BD
:1000C0001202031C6C289200910A0A301102031CD0
:1000D0005F289101900A5F28110E1207080083160D
:1000E00005100511851083128510051105103220A9
:1000F000303089203620303089201F203030892050
:100100002720203089202720B320B120AF209D2038
:100110000800F039930006080F3993048316060887
:1001200095000F308605831213088600051505110A
:10013000831615088600831208000630B428803024
:10014000B428C030B4289430B428D430B4288038CF
:10015000B428C038B4280830B4280E30B4280C3085
:10016000B4280130B42828300510B8280514C02060
:1001700094008920140E8920051C382024200800B2
:100180009300F13C031DC728EE309300D4281308D8
:10019000D13C031DCE28EE309300D4281308BA3C7E
:1001A000031DD428DF309300130808001030DD2829
:1001B0000130DD280230DD28033096002030B620E3
:1001C000960BDE2808009700F039031DEB2820303D
:1001D000B620ED289700170EEE2017080F3996006D
:1001E000093C031CF6281608303EF8281608373E4E
:0201F000B6282F
:02400E00F13F80
:00000001FF
