:020000040000FA
:020000000528D1
:0800080014289A20831607302A
:100010008100061783128C018D018E018F013D3006
:100020008100A8308B0013280B191D200B1C1A28E7
:10003000061F3D200B100B110900622065200000F7
:100040003D3081004720031C2828FF3090062920DE
:1000500008000430D420101C31280C0824210E2163
:10006000322805213A30E1200D08242115213A30AB
:10007000E1200E082421152108007020061B4628C7
:1000800010144D2029206A20061F3D2808008F0AE1
:100090000A300F0203188F0108008C0A18300C0276
:1000A00003188C01080000000000000000000000A0
:1000B000000008000000A4306628000040306628D8
:1000C0001F30662800000E30662805309100910B25
:1000D00067280800C83079286430792832307928B8
:1000E000143079280A3079280530792802307928A7
:1000F00001309200F93091000000910B7C28920BA6
:100100007A280800C8308D2864308D2832308D2838
:1001100014308D280A308D28053093006430920009
:10012000F93091000000910B9228920B9028930BCC
:100130008E2808008316051005118510831285107E
:100140000511051070203030B42074203030B420F8
:100150005D203030B42065202030B4206520DE20C2
:10016000DC20DA20C8200800F039940006080F3996
:1001700094048316060896000F308605831214082F
:1001800086000515051183161608860083120800DF
:100190000630DF288030DF28C030DF289430DF28A9
:1001A000D430DF288038DF28C038DF280830DF2847
:1001B0000E30DF280C30DF280130DF282830051012
:1001C000E3280514EB209500B420150EB420051C7F
:1001D0007620622008009400F13C031DF228EE30E6
:1001E0009400FF281408D13C031DF928EE30940038
:1001F000FF281408BA3C031DFF28DF3094001408C0
:10020000080010300829013008290230082903307D
:1002100097002030E120970B092908009800F03959
:10022000031D16292030E12018299800180E1921E5
:1002300018080F399700093C031C21291708303E84
:1002400023291708373EE12899019A019B000A30BB
:100250001B02031C34299B009A0A0A301A02031C51
:0E02600027299A01990A27291A0E1B07080060
:02400E00F13F80
:00000001FF
