:020000040000FA
:020000000528D1
:0800080011287820831606146C
:100010008113011383128C01152090308B00630033
:100020000F283B2006181C288C0AA8200C086520E5
:10003000EC203520061C14288B100900000000005D
:10004000000000000000000008000000A43031287B
:100050000000403031281F30312800000E30312898
:1000600005308D008D0B32280800C83044286430DC
:10007000442832304428143044280A3044280530BB
:1000800044280230442801308E00F9308D000000F1
:100090008D0B47288E0B45280800C830582864303F
:1000A000582832305828143058280A30582805303B
:1000B0008F0064308E00F9308D0000008D0B5D28BC
:1000C0008E0B5B288F0B592808009001910192003C
:1000D0000A301202031C75289200910A0A3011029C
:1000E000031C68289101900A6828110E1207080065
:1000F0008316051005118510831285100511051052
:100100003B20303092203F20303092202820303069
:1001100092203020203092203020BC20BA20B820FD
:10012000A6200800F039930006080F3993048316BF
:10013000060895000F308605831213088600051502
:100140000511831615088600831208000630BD28A5
:100150008030BD28C030BD289430BD28D430BD28A3
:100160008038BD28C038BD280830BD280E30BD28D5
:100170000C30BD280130BD2828300510C1280514D9
:10018000C92094009220140E9220051C41202D209D
:1001900008009300F13C031DD028EE309300DD28C9
:1001A0001308D13C031DD728EE309300DD28130837
:1001B000BA3C031DDD28DF3093001308080010301F
:1001C000E6280130E6280230E62803309600203089
:1001D000BF20960BE72808009700F039031DF4288C
:1001E0002030BF20F6289700170EF72017080F3988
:1001F0009600093C031CFF281608303E012916080A
:04020000373EBF289E
:02400E00F13F80
:00000001FF
