:020000040000FA
:020000001728BF
:080008002228820744347534FC
:100010007434793420344334793463346C34653443
:100020003A3420340034253420342034003483160C
:100030008611861708308100831290203520883081
:100040008B0021280B1829200B1944200B100B11B1
:1000500009003721861B3F288B160A300C078C00BD
:10006000643C0319382803183C2886118C013B286E
:10007000861564308C008B125520861F3D280C0895
:100080008D00A73081000800A73081008D0B542817
:1000900086195028000086150C088D000000542891
:1000A00086110C08643C8D000800C02006306820D2
:1000B0000C0861211908031D61280C086121042125
:1000C00065280F210C0861210B21133068200800DE
:1000D0008E0005308E028E030E0805208F008F08DB
:1000E00003197528D7208E0A6C2808008E00053069
:1000F0008E028E039001D22010301002031D85283D
:10010000312131210F308E027A280E0805208F0010
:100110008F0803198F28D720900A8E0A7C280800A0
:100120008316051005118510831285100511051021
:1001300037213030AA203B213030AA202421303012
:10014000AA202C212030AA202C21D420D220D0205B
:10015000BE200800F039910006080F39910483167B
:10016000060893000F3086058312110886000515D6
:100170000511831613088600831208000630D5285F
:100180008030D528C030D5289430D528D430D52813
:100190008038D528C038D5280830D5280E30D52845
:1001A0000C30D5280130D52828300510D928051461
:1001B000E1209200AA20120EAA20051C3D2129212F
:1001C00008009100F13C031DE828EE309100F5286D
:1001D0001108D13C031DEF28EE309100F5281108DD
:1001E000BA3C031DF528DF309100110808001030DB
:1001F000FE280130FE280230FE2803309400203013
:10020000D720940BFF2808009500F039031D0C2916
:100210002030D7200E299500150E0F2115080F3913
:100220009400093C031C17291408303E19291408AE
:10023000373ED7280000000000000000000000004A
:1002400008000000A4302D29000040302D291F3067
:100250002D2900000E302D2905309600960B2E29F1
:100260000800C83040296430402932304029143019
:1002700040290A3040290530402902304029013008
:100280009700F93096000000960B4329970B4129FF
:100290000800C830542964305429323054291430AD
:1002A00054290A3054290530980064309700F930F9
:1002B00096000000960B5929970B5729980B552942
:1002C000080099019A019B000A301B02031C712946
:1002D0009B009A0A0A301A02031C64299A01990A9F
:0802E00064291A0E1B07080037
:02400E00F13F80
:00000001FF
