:020000040000FA
:020000000528D1
:080008000F287520831606176E
:1000100083128C01132088308B0063000D28382058
:10002000061B19288C0AA5200C086220E920061F4F
:1000300017280B100900000000000000000000005D
:10004000000008000000A4302E28000040302E28B8
:100050001F302E2800000E302E2805308D008D0B0D
:100060002F280800C8304128643041283230412808
:10007000143041280A3041280530412802304128F7
:1000800001308E00F9308D0000008D0B44288E0B5E
:1000900042280800C8305528643055283230552889
:1000A000143055280A30552805308F0064308E00F2
:1000B000F9308D0000008D0B5A288E0B58288F0BBD
:1000C000562808009001910192000A301202031C88
:1000D00072289200910A0A301102031C65289101CE
:1000E000900A6528110E12070800831605100511E5
:1000F00085108312851005110510382030308F20AF
:100100003C2030308F20252030308F202D20203093
:100110008F202D20B920B720B520A3200800F0396A
:10012000930006080F3993048316060895000F30D4
:100130008605831213088600051505118316150818
:100140008600831208000630BA288030BA28C030F2
:10015000BA289430BA28D430BA288038BA28C0389F
:10016000BA280830BA280E30BA280C30BA28013024
:10017000BA2828300510BE280514C62094008F2008
:10018000140E8F20051C3E202A2008009300F13C0D
:10019000031DCD28EE309300DA281308D13C031D4F
:1001A000D428EE309300DA281308BA3C031DDA286D
:1001B000DF309300130808001030E3280130E328F3
:1001C0000230E328033096002030BC20960BE42850
:1001D00008009700F039031DF1282030BC20F328D7
:1001E0009700170EF42017080F399600093C031CDE
:0E01F000FC281608303EFE281608373EBC28B4
:02400E00F13F80
:00000001FF
