:020000040000FA
:100000001A208316051683128C010D20051E092067
:100010000628C120051A13281420073052200C0886
:10002000EB208E20BB2008008C0A0C083B3C031CF4
:100030008C010800831605100511851083128510A8
:1000400005110510C12030303420C5203030342057
:10005000AE2030303420B62020303420B6205E2050
:100060005C205A2048200800F0398D0006080F391E
:100070008D04831606088F000F30860583120D0845
:1000800086000515051183160F08860083120800E7
:1000900006305F2880305F28C0305F2894305F28AA
:1000A000D4305F2880385F28C0385F2808305F2848
:1000B0000E305F280C305F2801305F282830051093
:1000C000632805146B208E0034200E0E3420051C8E
:1000D000C720B32008008D00F13C031D7228EE30CC
:1000E0008D007F280D08D13C031D7928EE308D004E
:1000F0007F280D08BA3C031D7F28DF308D000D08D6
:100100000800103088280130882802308828033001
:10011000900020306120900B892808009100F03970
:10012000031D96282030612098289100110E9920F7
:1001300011080F399000093C031CA1281008303E1B
:10014000A3281008373E61280000000000000000CE
:100150000000000008000000A430B7280000403074
:10016000B7281F30B72800000E30B728053092009E
:10017000920BB8280800C830CA286430CA28323028
:10018000CA281430CA280A30CA280530CA280230C2
:10019000CA2801309300F93092000000920BCD285C
:1001A000930BCB280800C830DE286430DE283230BC
:1001B000DE281430DE280A30DE2805309400643052
:1001C0009300F93092000000920BE328930BE12892
:1001D000940BDF2808009501960197000A3017025A
:1001E000031CFB289700960A0A301602031CEE280F
:0C01F0009601950AEE28160E170708006D
:02400E00F13F80
:00000001FF
