:020000040000FA
:1000000027208316051683128C010F20051A0E284F
:10001000CE20051A0E288C0A0F20C8200628692039
:100020000C08A22094200C08F8208D001708A620A8
:100030000D08A220592008308D000C088E008E0D6E
:100040003130031C30306E208D0B1F2808008316C2
:100050000510051185108312851005110510CE209D
:1000600030304120D22030304120BB203030412080
:10007000C32020304120C3206B20692067205520F9
:100080000800F0398F0006080F398F048316060820
:1000900091000F30860583120F08860005150511A3
:1000A0008316110886008312080006306C28803001
:1000B0006C28C0306C2894306C28D4306C28803880
:1000C0006C28C0386C2808306C280E306C280C3036
:1000D0006C2801306C282830051070280514782011
:1000E00090004120100E4120051CD420C0200800A3
:1000F0008F00F13C031D7F28EE308F008C280F0805
:10010000D13C031D8628EE308F008C280F08BA3CA6
:10011000031D8C28DF308F000F0808001030952851
:1001200001309528023095280330920020306E204F
:10013000920B962808009300F039031DA328203065
:100140006E20A5289300130EA62013080F399200E5
:10015000093C031CAE281208303EB0281208373E76
:100160006E280000000000000000000000000800F1
:100170000000A430C42800004030C4281F30C42828
:1001800000000E30C42805309400940BC5280800E8
:10019000C830D7286430D7283230D7281430D72831
:1001A0000A30D7280530D7280230D72801309500EB
:1001B000F93094000000940BDA28950BD828080039
:1001C000C830EB286430EB283230EB281430EB28B1
:1001D0000A30EB280530960064309500F930940021
:1001E0000000940BF028950BEE28960BEC280800E5
:1001F0009701980199000A301902031C08299900F7
:10020000980A0A301802031CFB289801970AFB2859
:06021000180E190708009A
:02400E00F13F80
:00000001FF
