:020000040000FA
:100000006A203B308C000A208C0B03280A20AC208D
:10001000472001289A200C085720DE20492008009C
:1000200000000000000000000000000008000000C8
:10003000A43023280000403023281F30232800004C
:100040000E30232805308D008D0B24280800C83081
:1000500036286430362832303628143036280A30B4
:100060003628053036280230362801308E00F93027
:100070008D0000008D0B39288E0B37280800C83002
:100080004A2864304A2832304A2814304A280A3034
:100090004A2805308F0064308E00F9308D00000052
:1000A0008D0B4F288E0B4D288F0B4B28080090018D
:1000B000910192000A301202031C67289200910AF3
:1000C0000A301102031C5A289101900A5A28110E75
:1000D000120708008316051005118510831285107C
:1000E000051105102D20303084203120303084203F
:1000F0001A20303084202220203084202220AE207C
:10010000AC20AA2098200800F039930006080F3987
:1001100093048316060895000F3086058312130892
:100120008600051505118316150886008312080040
:100130000630AF288030AF28C030AF289430AF28C9
:10014000D430AF288038AF28C038AF280830AF2867
:100150000E30AF280C30AF280130AF282830051002
:10016000B3280514BB2094008420140E8420051CA1
:1001700033201F2008009300F13C031DC228EE30FD
:100180009300CF281308D13C031DC928EE309300FB
:10019000CF281308BA3C031DCF28DF309300130883
:1001A00008001030D8280130D8280230D828033071
:1001B00096002030B120960BD92808009700F0391E
:1001C000031DE6282030B120E8289700170EE9200B
:1001D00017080F399600093C031CF1281608303E19
:0801E000F3281608373EB12890
:02400E00F13F80
:00000001FF
