:020000040000FA
:100000007E2083160516831203308C0007308D0086
:100010001A20051E0C2009288C0A0C08103C031815
:10002000132803308C008D0A0D08153C03181A287C
:1000300007308D00AE200C086B20F220B0200D0898
:100040006B20F2203B2008000000000000000000B0
:100050000000000008000000A430372800004030F5
:1000600037281F30372800000E30372805308E0023
:100070008E0B38280800C8304A2864304A283230AD
:100080004A2814304A280A304A2805304A280230C3
:100090004A2801308F00F9308E0000008E0B4D2869
:1000A0008F0B4B280800C8305E2864305E28323041
:1000B0005E2814305E280A305E28053090006430D7
:1000C0008F00F9308E0000008E0B63288F0B6128A3
:1000D000900B5F2808009101920193000A301302EF
:1000E000031C7B289300920A0A301202031C6E281C
:1000F0009201910A6E28120E13070800831605104C
:10010000051185108312851005110510412030302E
:1001100098204520303098202E20303098203620EE
:10012000203098203620C220C020BE20AC200800FD
:10013000F039940006080F399404831606089600D7
:100140000F308605831214088600051505118316E5
:1001500016088600831208000630C3288030C328A2
:10016000C030C3289430C328D430C3288038C32873
:10017000C038C3280830C3280E30C3280C30C32829
:100180000130C32828300510C7280514CF2095005A
:100190009820150E9820051C472033200800940055
:1001A000F13C031DD628EE309400E3281408D13C1E
:1001B000031DDD28EE309400E3281408BA3C031D2B
:1001C000E328DF309400140808001030EC280130D8
:1001D000EC280230EC28033097002030C520970B24
:1001E000ED2808009800F039031DFA282030C520BA
:1001F000FC289800180EFD2018080F399700093CBC
:10020000031C05291708303E07291708373EC52863
:02400E00F13F80
:00000001FF
