:020000040000FA
:100000007C2016300621831605168312051A142843
:100010008C0A0C08313C03180F2801308C00073083
:10002000B6200C086920F0200628820720344234CC
:100030006F346E346F3420344C346F3474346F3416
:100040003A3400340000000000000000000000000E
:1000500008000000A43035280000403035281F304B
:10006000352800000E30352805308D008D0B3628E0
:100070000800C830482864304828323048281430F6
:1000800048280A30482805304828023048280130DE
:100090008E00F9308D0000008D0B4B288E0B492807
:1000A0000800C8305C2864305C2832305C2814308A
:1000B0005C280A305C2805308F0064308E00F930EF
:1000C0008D0000008D0B61288E0B5F288F0B5D2843
:1000D00008009001910192000A301202031C792855
:1000E0009200910A0A301102031C6C289101900AB7
:1000F0006C28110E120708008316051005118510D3
:1001000083128510051105103F20303096204320C2
:10011000303096202C20303096203420203096200D
:100120003420C020BE20BC20AA200800F039930053
:1001300006080F3993048316060895000F308605CC
:10014000831213088600051505118316150886000D
:10015000831208000630C1288030C128C030C12871
:100160009430C128D430C1288038C128C038C12873
:100170000830C1280E30C1280C30C1280130C128F8
:1001800028300510C5280514CD2094009620140EA3
:100190009620051C4520312008009300F13C031DEA
:1001A000D428EE309300E1281308D13C031DDB284E
:1001B000EE309300E1281308BA3C031DE128DF303C
:1001C0009300130808001030EA280130EA280230B2
:1001D000EA28033096002030C320960BEB28080055
:1001E0009700F039031DF8282030C320FA28970023
:1001F000170EFB2017080F399600093C031C032932
:100200001608303E05291608373EC32898001530D9
:1002100098029803180815209900990803191329C2
:10022000C320980A0A2908009800153098029803FC
:100230009A01BE2010301A02031D232939203920CB
:100240000F309802182918081520990099080319E9
:0C0250002D29C3209A0A980A1A290800D8
:02400E00F13F80
:00000001FF
