:020000040000FA
:1000000080200F305820B22021305820B4203630C4
:100010005820B6204730582063000028820720343B
:1000200020342034203445347334743475346434CB
:100030006934613420344334693463346C346F344C
:10004000003446346F3472346D346134743469343E
:1000500076346F342034443445345334413452348C
:1000600052344F344C344C344F3400342034203428
:1000700020342034443445342034503452344F3406
:1000800044345534433454344F34533400342034DE
:1000900020342034203445344C34453443345434F3
:1000A00052344F344E34493443344F345334003493
:1000B0008C000E308C028C030C080E208D008D08F5
:1000C00003196528C7208C0A5C2808008C000E30B4
:1000D0008C028C038E01C22010300E02031D752885
:1000E000212121210F308C026A280C080E208D005E
:1000F0008D0803197F28C7208E0A8C0A6C280800F7
:100100008316051005118510831285100511051041
:10011000272130309A202B2130309A201421303082
:100120009A201C2120309A201C21C420C220C020EB
:10013000AE200800F0398F0006080F398F048316AF
:10014000060891000F30860583120F0886000515FA
:100150000511831611088600831208000630C52891
:100160008030C528C030C5289430C528D430C52873
:100170008038C528C038C5280830C5280E30C528A5
:100180000C30C5280130C52828300510C9280514B1
:10019000D12090009A20100E9A20051C2D211921A3
:1001A00008008F00F13C031DD828EE308F00E528B1
:1001B0000F08D13C031DDF28EE308F00E5280F0823
:1001C000BA3C031DE528DF308F000F08080010300F
:1001D000EE280130EE280230EE2803309200203065
:1001E000C720920BEF2808009300F039031DFC286C
:1001F0002030C720FE289300130EFF2013080F396C
:100200009200093C031C07291208303E09291208F4
:10021000373EC7280000000000000000000000007A
:1002200008000000A4301D29000040301D291F30A7
:100230001D2900000E301D2905309400940B1E2945
:100240000800C83030296430302932303029143069
:1002500030290A3030290530302902303029013068
:100260009500F93094000000940B3329950B312947
:100270000800C830442964304429323044291430FD
:1002800044290A3044290530960064309500F9303D
:1002900094000000940B4929950B4729960B45299A
:0202A000080054
:02400E00F13F80
:00000001FF
