:020000040000FA
:0200000089284D
:08000800982882070D340A3428
:1000100045346E3474347234613464346134203461
:100020003334203420342034203445346E34743456
:1000300072346134643461342034323420342034F6
:100040002034203445346E34743472346134643472
:100050006134203431342034203420342034453489
:100060006E34743472346134643461342034303426
:100070000D340A342D342D342D342D342D342D34BB
:100080002D342D342D3420342034203420342D349C
:100090002D342D342D342D342D342D342D342D3458
:1000A00020342034203420342D342D342D342D347C
:1000B0002D342D342D342D342D342034203420345F
:1000C00020342D342D342D342D342D342D342D3435
:1000D0002D342D340D340A3400342034413462344C
:1000E00069346534723474346F34203420342034ED
:1000F0002034203400342034433465347234723474
:10010000613464346F34203420342034203420347B
:100110000034B82083160616861606178617811334
:100120008312EE20EE20982088308B006300962802
:10013000EE200630E020861F9F28B220A028B520A0
:10014000061FA428B220A528B520861EA928B22003
:10015000AA28B520061EAE28B220AF28B520EE2072
:100160000B1009006D30E02008007B30E020080013
:1001700085158316051685118312080008308C003A
:10018000051AC028042106210310051A03148D0C3A
:1001900004218C0BC42801210D080800303E8D007D
:1001A00008308C00851104218D0C031CD92885157D
:1001B000DA28851104218C0BD4288515012108002B
:1001C0008E0005308E028E030E0805208F008F08EA
:1001D0000319ED28CF208E0AE42808000A30900089
:1001E0000A30CF20900BF0280D30CF2008000000FF
:1001F0000000000000000000000008000000A43023
:100200000A29000040300A291F300A2900000E3058
:100210000A2905309100910B0B290800C8301D29CF
:1002200064301D2932301D2914301D290A301D2942
:1002300005301D2902301D2901309200F93091004E
:100240000000910B2029920B1E290800C83031298B
:100250006430312932303129143031290A303129C2
:100260000530930064309200F93091000000910B4A
:0C0270003629920B3429930B3229080028
:02400E00F13F80
:00000001FF
