:020000040000FA
:100000003820102016208C000D3C03190A280C08FB
:100010007F200D286A200A3027200C08272002287C
:1000200085158316051685118312080008308D008A
:10003000051A1828CF20D1200310051A03148E0C9E
:10004000CF208D0B1C28CC200E080800303E8E00DF
:1000500008308D008511CF208E0C031C31288515AA
:1000600032288511CF208D0B2C288515CC20080037
:1000700083160510051185108312851005110510D2
:10008000DF2030305220E32030305220CC2030307E
:100090005220D42020305220D4207C207A20782076
:1000A00066200800F0398F0006080F398F04831688
:1000B000060891000F30860583120F08860005158B
:1000C00005118316110886008312080006307D286A
:1000D00080307D28C0307D2894307D28D4307D2824
:1000E00080387D28C0387D2808307D280E307D2856
:1000F0000C307D2801307D2828300510812805141A
:10010000892090005220100E5220051CE520D1209D
:1001100008008F00F13C031D9028EE308F009D28D1
:100120000F08D13C031D9728EE308F009D280F0843
:10013000BA3C031D9D28DF308F000F0808001030E7
:10014000A6280130A6280230A628033092002030CD
:100150007F20920BA72808009300F039031DB428D4
:1001600020307F20B6289300130EB72013080F39D4
:100170009200093C031CBF281208303EC128120817
:10018000373E7F2800000000000000000000000053
:1001900008000000A430D52800004030D5281F30CA
:1001A000D52800000E30D52805309400940BD628B1
:1001B0000800C830E8286430E8283230E8281430D5
:1001C000E8280A30E8280530E8280230E82801301D
:1001D0009500F93094000000940BEB28950BE9286A
:1001E0000800C830FC286430FC283230FC28143069
:1001F000FC280A30FC280530960064309500F93060
:1002000094000000940B0129950BFF28960BFD2804
:020210000800E4
:02400E00F13F80
:00000001FF
