:020000040000FA
:1000000083160516861083128610051E0C284020C4
:10001000051E1028861410284020051A1028861066
:10002000052800000000000000000000000008009B
:100030000000A43024280000403024281F30242849
:1000400000000E30242805308C008C0B2528080079
:10005000C8303728643037283230372814303728F2
:100060000A303728053037280230372801308D0014
:10007000F9308C0000008C0B3A288D0B38280800D2
:10008000C8304B2864304B2832304B2814304B2872
:100090000A304B2805308E0064308D00F9308C001A
:1000A00000008C0B50288D0B4E288E0B4C2808001E
:02400E00F13F80
:00000001FF
