:020000040000FA
:020000000528D1
:080008000B2857202E20883040
:100010008B006300092817208C00093C031C13285F
:100020000C08D6201428992033200B1009003B20FF
:10003000031C1C281D20031408008207013402340D
:1000400003340F340434053406340E3407340834D2
:1000500009340D340A3400340B340C348316F03078
:10006000860081138312F0308600FE200608F03CE3
:10007000031D352808008D01FE3086000621061E6E
:1000800054288D0A861E54288D0A061F54288D0A6E
:10009000861F54288D0A0F300D02031852280314AE
:1000A000060D3D28031056280D080314080083167A
:1000B0000510051185108312851005110510FE200D
:1000C00030307120022130307120EB20303071202F
:1000D000F32020307120F3209B2099209720852049
:1000E0000800F0398E0006080F398E0483160608C2
:1000F00090000F30860583120E0886000515051145
:100100008316100886008312080006309C28803071
:100110009C28C0309C2894309C28D4309C2880385F
:100120009C28C0389C2808309C280E309C280C3015
:100130009C2801309C2828300510A0280514A820F0
:100140008F0071200F0E7120051C0421F020080083
:100150008E00F13C031DAF28EE308E00BC280E0847
:10016000D13C031DB628EE308E00BC280E08BA3CE8
:10017000031DBC28DF308E000E0808001030C52893
:100180000130C5280230C5280330910020309E2060
:10019000910BC62808009200F039031DD3282030A7
:1001A0009E20D5289200120ED62012080F399100F9
:1001B000093C031CDE281108303EE0281108373EB8
:1001C0009E28000000000000000000000000080061
:1001D0000000A430F42800004030F4281F30F42838
:1001E00000000E30F42805309300930BF52808002A
:1001F000C83007296430072932300729143007290D
:100200000A300729053007290230072901309400F8
:10021000F93093000000930B0A29940B0829080079
:10022000C8301B2964301B2932301B2914301B298C
:100230000A301B290530950064309400F930930092
:100240000000930B2029940B1E29950B1C290800F4
:02400E00F13F80
:00000001FF
