:020000040000FA
:020000000528D1
:080008000B286220392088302A
:100010008B006300092846201120A9203E200B10E8
:100020000900820741344234433444344534463471
:100030004734483449344A344B344C344D344E34CC
:10004000D1344F344620031C2728282003140800ED
:1000500082070134023403340F3404340534063487
:100060000E340734083409340D340A3400340B34A8
:100070000C348316F030860081138312F030860032
:1000800009210608F03C031D402808008C01FE30C1
:1000900086001121061E5F288C0A861E5F288C0AA6
:1000A000061F5F288C0A861F5F288C0A0F300C02FF
:1000B00003185D280314060D4828031061280C0856
:1000C000031408008316051005118510831285108E
:1000D00005110510092130307C200D2130307C20A5
:1000E000F62030307C20FE2020307C20FE20A62010
:1000F000A420A22090200800F0398D0006080F39B6
:100100008D04831606088F000F30860583120D08B4
:1001100086000515051183160F0886008312080056
:100120000630A7288030A728C030A7289430A728F9
:10013000D430A7288038A728C038A7280830A72897
:100140000E30A7280C30A7280130A728283005102A
:10015000AB280514B3208E007C200E0E7C20051CDD
:100160000F21FB2008008D00F13C031DBA28EE3062
:100170008D00C7280D08D13C031DC128EE308D002D
:10018000C7280D08BA3C031DC728DF308D000D08B5
:1001900008001030D0280130D0280230D028033099
:1001A00090002030A920900BD12808009100F03950
:1001B000031DDE282030A920E0289100110EE12047
:1001C00011080F399000093C031CE9281008303E43
:1001D000EB281008373EA9280000000000000000AE
:1001E0000000000008000000A430FF28000040309C
:1001F000FF281F30FF2800000E30FF280530920036
:10020000920B00290800C8301229643012293230BC
:100210001229143012290A3012290530122902300D
:10022000122901309300F93092000000920B152939
:10023000930B13290800C830262964302629323050
:100240002629143026290A302629053094006430E6
:100250009300F93092000000920B2B29930B29296F
:06026000940B27290800A1
:02400E00F13F80
:00000001FF
