:020000040000FA
:10000000A52083163830810083128101E720253036
:100010002F21822001088C00E72031302F21D720AA
:100020000C0816203C302F217E2005288C009220C1
:100030001008031D1F280C089220192123282421B1
:100040000C0892202021080082072034203420341C
:100050002034503475346C34733465342034203497
:100060000034203420342034203453345534453483
:100070004C345434453400342034503475346C34AA
:1000800073342E342B345234653462342E3420349D
:100090002034203400340000000000000000000084
:1000A000000008000000A4305E28000040305E28F8
:1000B0001F305E2800000E305E2805308D008D0B4D
:1000C0005F280800C83071286430712832307128E8
:1000D000143071280A3071280530712802307128D7
:1000E00001308E00F9308D0000008D0B74288E0BCE
:1000F00072280800C8308528643085283230852869
:10010000143085280A30852805308F0064308E0031
:10011000F9308D0000008D0B8A288E0B88288F0BFC
:10012000862808009001910192000A301202031CF7
:10013000A2289200910A0A301102031C952891010D
:10014000900A9528110E1207080083160510051154
:100150008510831285100511051068203030BF20EE
:100160006C203030BF2055203030BF205D20203043
:10017000BF205D20E920E720E520D3200800F039EA
:10018000930006080F3993048316060895000F3074
:1001900086058312130886000515051183161508B8
:1001A0008600831208000630EA288030EA28C03032
:1001B000EA289430EA28D430EA288038EA28C0387F
:1001C000EA280830EA280E30EA280C30EA28013004
:1001D000EA2828300510EE280514F6209400BF20E8
:1001E000140EBF20051C6E205A2008009300F13C1D
:1001F000031DFD28EE3093000A291308D13C031D8E
:100200000429EE3093000A291308BA3C031D0A2979
:10021000DF30930013080800103013290130132930
:1002200002301329033096002030EC20960B14295D
:1002300008009700F039031D21292030EC202329E4
:100240009700170E242117080F399600093C031C4C
:100250002C291608303E2E291608373EEC28980027
:10026000243098029803180824209900990803194B
:100270003C29EC20980A3329080098002430980281
:1002800098039A01E72010301A02031D4C296220BE
:1002900062200F30980241291808242099009908FB
:0E02A00003195629EC209A0A980A43290800EF
:02400E00F13F80
:00000001FF
